{
  "_format": "hh-sol-artifact-1",
  "contractName": "Claim",
  "sourceName": "contracts/Claim.sol",
  "abi": [
    {
      "inputs": [
        {
          "internalType": "address[]",
          "name": "moderators_",
          "type": "address[]"
        },
        {
          "internalType": "uint256[]",
          "name": "balances_",
          "type": "uint256[]"
        },
        {
          "internalType": "contract IERC20",
          "name": "claimToken_",
          "type": "address"
        }
      ],
      "stateMutability": "nonpayable",
      "type": "constructor"
    },
    {
      "anonymous": false,
      "inputs": [
        {
          "indexed": true,
          "internalType": "address",
          "name": "previousOwner",
          "type": "address"
        },
        {
          "indexed": true,
          "internalType": "address",
          "name": "newOwner",
          "type": "address"
        }
      ],
      "name": "OwnershipTransferred",
      "type": "event"
    },
    {
      "inputs": [],
      "name": "claim",
      "outputs": [],
      "stateMutability": "nonpayable",
      "type": "function"
    },
    {
      "inputs": [],
      "name": "owner",
      "outputs": [
        {
          "internalType": "address",
          "name": "",
          "type": "address"
        }
      ],
      "stateMutability": "view",
      "type": "function"
    },
    {
      "inputs": [],
      "name": "renounceOwnership",
      "outputs": [],
      "stateMutability": "nonpayable",
      "type": "function"
    },
    {
      "inputs": [
        {
          "internalType": "address",
          "name": "account",
          "type": "address"
        }
      ],
      "name": "tokenBalance",
      "outputs": [
        {
          "internalType": "uint256",
          "name": "",
          "type": "uint256"
        }
      ],
      "stateMutability": "view",
      "type": "function"
    },
    {
      "inputs": [
        {
          "internalType": "address",
          "name": "newOwner",
          "type": "address"
        }
      ],
      "name": "transferOwnership",
      "outputs": [],
      "stateMutability": "nonpayable",
      "type": "function"
    }
  ],
  "bytecode": "0x60806040523480156200001157600080fd5b5060405162000abf38038062000abf8339810160408190526200003491620002b0565b6200003f3362000153565b60005b60058160ff16101562000129576001806000868460ff16815181106200006c576200006c62000394565b60200260200101516001600160a01b03166001600160a01b0316815260200190815260200160002060006101000a81548160ff021916908315150217905550828160ff1681518110620000c357620000c362000394565b602002602001015160026000868460ff1681518110620000e757620000e762000394565b60200260200101516001600160a01b03166001600160a01b031681526020019081526020016000208190555080806200012090620003aa565b91505062000042565b50600380546001600160a01b0319166001600160a01b039290921691909117905550620003d99050565b600080546001600160a01b038381166001600160a01b0319831681178455604051919092169283917f8be0079c531659141344cd1fd0a4f28419497f9722a3daafe3b4186f6b6457e09190a35050565b634e487b7160e01b600052604160045260246000fd5b604051601f8201601f191681016001600160401b0381118282101715620001e457620001e4620001a3565b604052919050565b60006001600160401b03821115620002085762000208620001a3565b5060051b60200190565b6001600160a01b03811681146200022857600080fd5b50565b600082601f8301126200023d57600080fd5b81516020620002566200025083620001ec565b620001b9565b82815260059290921b840181019181810190868411156200027657600080fd5b8286015b848110156200029357805183529183019183016200027a565b509695505050505050565b8051620002ab8162000212565b919050565b600080600060608486031215620002c657600080fd5b83516001600160401b0380821115620002de57600080fd5b818601915086601f830112620002f357600080fd5b81516020620003066200025083620001ec565b82815260059290921b8401810191818101908a8411156200032657600080fd5b948201945b8386101562000351578551620003418162000212565b825294820194908201906200032b565b918901519197509093505050808211156200036b57600080fd5b506200037a868287016200022b565b9250506200038b604085016200029e565b90509250925092565b634e487b7160e01b600052603260045260246000fd5b600060ff821660ff811415620003d057634e487b7160e01b600052601160045260246000fd5b60010192915050565b6106d680620003e96000396000f3fe608060405234801561001057600080fd5b50600436106100575760003560e01c80634e71d92d1461005c578063715018a6146100665780638da5cb5b1461006e578063eedc966a1461008e578063f2fde38b146100c5575b600080fd5b6100646100d8565b005b6100646101a9565b6000546040516001600160a01b0390911681526020015b60405180910390f35b6100b761009c3660046105d6565b6001600160a01b031660009081526002602052604090205490565b604051908152602001610085565b6100646100d33660046105d6565b61020f565b3360009081526001602081905260409091205460ff161515146101325760405162461bcd60e51b815260206004820152600d60248201526c3737903832b936b4b9b9b4b7b760991b60448201526064015b60405180910390fd5b336000818152600260205260409020548061017c5760405162461bcd60e51b815260206004820152600a6024820152696e6f2062616c616e636560b01b6044820152606401610129565b6001600160a01b038083166000908152600260205260408120556003546101a5911683836102da565b5050565b6000546001600160a01b031633146102035760405162461bcd60e51b815260206004820181905260248201527f4f776e61626c653a2063616c6c6572206973206e6f7420746865206f776e65726044820152606401610129565b61020d6000610331565b565b6000546001600160a01b031633146102695760405162461bcd60e51b815260206004820181905260248201527f4f776e61626c653a2063616c6c6572206973206e6f7420746865206f776e65726044820152606401610129565b6001600160a01b0381166102ce5760405162461bcd60e51b815260206004820152602660248201527f4f776e61626c653a206e6577206f776e657220697320746865207a65726f206160448201526564647265737360d01b6064820152608401610129565b6102d781610331565b50565b604080516001600160a01b038416602482015260448082018490528251808303909101815260649091019091526020810180516001600160e01b031663a9059cbb60e01b17905261032c908490610381565b505050565b600080546001600160a01b038381166001600160a01b0319831681178455604051919092169283917f8be0079c531659141344cd1fd0a4f28419497f9722a3daafe3b4186f6b6457e09190a35050565b60006103d6826040518060400160405280602081526020017f5361666545524332303a206c6f772d6c6576656c2063616c6c206661696c6564815250856001600160a01b03166104539092919063ffffffff16565b80519091501561032c57808060200190518101906103f491906105ff565b61032c5760405162461bcd60e51b815260206004820152602a60248201527f5361666545524332303a204552433230206f7065726174696f6e20646964206e6044820152691bdd081cdd58d8d9595960b21b6064820152608401610129565b6060610462848460008561046c565b90505b9392505050565b6060824710156104cd5760405162461bcd60e51b815260206004820152602660248201527f416464726573733a20696e73756666696369656e742062616c616e636520666f6044820152651c8818d85b1b60d21b6064820152608401610129565b6001600160a01b0385163b6105245760405162461bcd60e51b815260206004820152601d60248201527f416464726573733a2063616c6c20746f206e6f6e2d636f6e74726163740000006044820152606401610129565b600080866001600160a01b031685876040516105409190610651565b60006040518083038185875af1925050503d806000811461057d576040519150601f19603f3d011682016040523d82523d6000602084013e610582565b606091505b509150915061059282828661059d565b979650505050505050565b606083156105ac575081610465565b8251156105bc5782518084602001fd5b8160405162461bcd60e51b8152600401610129919061066d565b6000602082840312156105e857600080fd5b81356001600160a01b038116811461046557600080fd5b60006020828403121561061157600080fd5b8151801515811461046557600080fd5b60005b8381101561063c578181015183820152602001610624565b8381111561064b576000848401525b50505050565b60008251610663818460208701610621565b9190910192915050565b602081526000825180602084015261068c816040850160208701610621565b601f01601f1916919091016040019291505056fea2646970667358221220f50675be400e451cd0028065f44de0981287d59bd41f8233b7c1e1bfcd675e9764736f6c63430008090033",
  "linkReferences": {},
  "deployedLinkReferences": {}
}